:100000000C9453000C947B000C947B000C947B00AC
:100010000C947B000C947B000C947B000C947B0074
:100020000C947B000C947B000C947B000C947B0064
:100030000C947B000C947B000C947B000C947B0054
:100040000C940B040C947B000C9480010C94C30161
:100050000C947B000C947B000C947B000C947B0034
:100060000C947B000C947B0001020408102040805B
:1000700001020408102001020408102004040404F2
:100080000404040402020202020203030303030342
:1000900000000000250028002B00000000002400C4
:1000A00027002A00FE0111241FBECFEFD8E0DEBFDB
:1000B000CDBF11E0A0E0B1E0E0ECF9E002C00590B6
:1000C0000D92A031B107D9F721E0A0E1B1E001C064
:1000D0001D92A53CB207E1F710E0C3E5D0E004C0F3
:1000E0002197FE010E94C904C235D107C9F70E94B9
:1000F000FE030C94DE040C94000061E084E00E9496
:10010000AA0061E085E00E94AA0061E086E00E940A
:10011000AA0061E086E00E94AA0060E080E00E9400
:10012000AA0060E081E00C94AA0082E191E00E94C4
:10013000E600892B71F082E191E00E94FB0370934D
:100140001101609310014AE050E082E191E00C94CB
:1001500036030895CF93DF9390E0FC01E859FF4FF9
:100160002491FC01E458FF4F8491882361F190E0D1
:10017000880F991FFC01E656FF4FC591D491FC01F1
:10018000E057FF4FA591B491611109C09FB7F89452
:100190008881209582238883EC912E230BC06230C6
:1001A00061F49FB7F8948881322F30958323888338
:1001B000EC912E2B2C939FBF06C08FB7F894E8814B
:1001C0002E2B28838FBFDF91CF910895FC012485CA
:1001D0003585F901E05CFF4F808191813296208165
:1001E0003181821B930B8F7399270895DC011C9634
:1001F000ED91FC911D97DF01A05CBF4F2D913C91CB
:10020000119712968D919C9111972817390739F003
:100210008D919C91E80FF91F808190E008958FEFF8
:100220009FEF0895FC01A485B585FD01E05CFF4FBB
:10023000208131813296808191812817390779F0A8
:1002400080819181A80FB91F8C91208131812F5F0E
:100250003F4F2F7333273183208390E008958FEF32
:100260009FEF0895FC0181A1882329F0A489B58915
:100270008C9186FFFBCF11A208950F931F93CF930C
:10028000DF93FC01A685B7858D01005C1F4FE80157
:100290008881998101968F739927AD014E5B5F4FDD
:1002A000EA012881398128173907D1F3E80128812B
:1002B0003981A20FB31F6C93A685B785A05CBF4F91
:1002C00011969C938E93A689B7892C9181E090E03A
:1002D000078C02C0880F991F0A94E2F7822B8C9337
:1002E00081E081A30488F589E02D8081806480838A
:1002F00081E090E0DF91CF911F910F9108950895D3
:100300001F920F920FB60F9211242F934F935F936A
:100310008F939F93EF93FF938091C00082FD1CC049
:100320002091C6008091B8019091B9014091BA0125
:100330005091BB0101968F7399274817590771F0A7
:10034000E091B801F091B901E858FE4F20839093F5
:10035000B9018093B80102C08091C600FF91EF916E
:100360009F918F915F914F912F910F900FBE0F90A2
:100370001F90189582E191E00E94E600892B11F010
:100380000C947F0108951F920F920FB60F921124C3
:100390002F933F938F939F93EF93FF93209174013B
:1003A0003091750180917601909177012817390776
:1003B00031F48091C1008F7D8093C10014C0E09121
:1003C0007601F0917701EC5CFE4F208180917601FF
:1003D0009091770101968F7399279093770180937D
:1003E00076012093C600FF91EF919F918F913F91ED
:1003F0002F910F900FBE0F901F901895E2E1F1E042
:100400001382128288EE93E0A0E0B0E084839583AB
:10041000A683B78384E091E09183808388E791E0AD
:100420009587848784E391E09787868785EC90E0C1
:10043000918B808B84EC90E0938B828B80EC90E0AE
:10044000958B848B81EC90E0978B868B82EC90E08F
:10045000918F808F86EC90E0938F828F84E0848FE1
:1004600083E0858F87E0868F85E0878F81E080A39A
:100470000895CF92DF92EF92FF920F931F93CF9345
:10048000DF936C01EB017B01E40EF51E00E010E050
:10049000CE15DF0561F06991D601ED91FC910190D7
:1004A000F081E02DC6010995080F191FF1CFC80191
:1004B000DF91CF911F910F91FF90EF90DF90CF9040
:1004C00008956115710579F0FB0101900020E9F7AD
:1004D0003197AF01461B570BDC01ED91FC91028077
:1004E000F381E02D099480E090E00895DC01ED9126
:1004F000FC910190F081E02D09940F931F93CF930D
:10050000DF93EC016DE00E9476028C016AE0CE017F
:100510000E947602800F911FDF91CF911F910F9162
:1005200008958F929F92AF92BF92CF92DF92EF92F7
:10053000FF920F931F93CF93DF93CDB7DEB7A197B1
:100540000FB6F894DEBF0FBECDBF6C01142FE52FA0
:10055000CB01022F19A2223008F40AE07E0121E229
:10056000E20EF11C802E912CA12CB12C612F7E2F3C
:10057000A50194010E949C04029F1019112481E09E
:10058000E81AF1081A3014F4105D01C0195CF70183
:100590001083122FE32FCA01232B242B252B31F795
:1005A000B701C6010E946102A1960FB6F894DEBFA2
:1005B0000FBECDBFDF91CF911F910F91FF90EF90B4
:1005C000DF90CF90BF90AF909F908F900895CF9283
:1005D000DF92EF92FF920F931F93CF93DF9321153A
:1005E000310581F4DC01ED91FC910190F081E02D69
:1005F000642FDF91CF911F910F91FF90EF90DF90CB
:10060000CF9009942A30310501F577FF1DC06A01AA
:100610007B01EC016DE20E9476028C014427552794
:10062000BA014C195D096E097F092AE0CE010E94CA
:100630009102800F911FDF91CF911F910F91FF9039
:10064000EF90DF90CF9008952AE0DF91CF911F9136
:100650000F91FF90EF90DF90CF900C9491029A0150
:10066000AB01770F660B770B0C94E7020F931F9388
:10067000CF93DF93EC010E942F038C01CE010E94E7
:100680007D02800F911FDF91CF911F910F910895EF
:100690000F931F93CF93DF93EC010E94550468875B
:1006A00079878A879B87E881F9810084F185E02D2D
:1006B000CE01099597FF17C00E945504088519853A
:1006C0002A853B85DC01CB01801B910BA20BB30B70
:1006D0000C811D812E813F8180179107A207B307EE
:1006E00010F38FEF9FEFDF91CF911F910F9108953E
:1006F000CF93DF93EC01CE010E94480397FD11C018
:100700008D32910571F09C01205331092A30310559
:1007100040F0E881F9810680F781E02DCE0109954E
:10072000EACFDF91CF910895BF92CF92DF92EF92FF
:10073000FF920F931F93CF93DF938C01C62F0E94DC
:100740007803FC0197FD47C0C12CD12C7601B12C58
:100750000C2E000CDD0BEC17FD0709F1ED32F10555
:10076000E1F0CF01C0970A97D0F4AAE0B0E0A7016A
:1007700096010E94BE046F01FF0FEE08FF08DC0126
:10078000CB018C0D9D1DAE1DBF1D6C017D0120E3B5
:10079000C21AD108E108F10802C0BB24B394D80101
:1007A000ED91FC910680F781E02DC8010995C80103
:1007B0000E944803FC01C0970A9768F2CE17DF0732
:1007C00051F2BB2061F066277727CB016C197D09B8
:1007D0008E099F0906C060E070E0CB0102C0C7012E
:1007E000B601DF91CF911F910F91FF90EF90DF90B5
:1007F000CF90BF90089561E00C9494030E9461042F
:100800000E947D00CAEBD1E00E9495002097E1F3A1
:100810000E94BA01F9CF1F920F920FB60F921124C6
:100820002F933F938F939F93AF93BF938091BD017D
:100830009091BE01A091BF01B091C0013091BC0167
:1008400023E0230F2D3720F40196A11DB11D05C013
:1008500026E8230F0296A11DB11D2093BC018093B1
:10086000BD019093BE01A093BF01B093C0018091E0
:10087000C1019091C201A091C301B091C401019640
:10088000A11DB11D8093C1019093C201A093C3012A
:10089000B093C401BF91AF919F918F913F912F91E0
:1008A0000F900FBE0F901F9018952FB7F89460917E
:1008B000BD017091BE018091BF019091C0012FBF19
:1008C0000895789484B5826084BD84B5816084BDC8
:1008D00085B5826085BD85B5816085BDEEE6F0E0B9
:1008E000808181608083E1E8F0E010828081826015
:1008F0008083808181608083E0E8F0E08081816096
:100900008083E1EBF0E0808184608083E0EBF0E0C5
:10091000808181608083EAE7F0E080818460808369
:100920008081826080838081816080838081806813
:1009300080831092C1000895A1E21A2EAA1BBB1B4E
:10094000FD010DC0AA1FBB1FEE1FFF1FA217B3079B
:10095000E407F50720F0A21BB30BE40BF50B661FB1
:10096000771F881F991F1A9469F760957095809575
:1009700090959B01AC01BD01CF0108950E94CF0469
:10098000A59F900DB49F900DA49F800D911D1124E3
:100990000895EE0FFF1F0590F491E02D0994A29F9A
:1009A000B001B39FC001A39F700D811D1124911D43
:1009B000B29F700D811D1124911D0895F894FFCFF1
:1009C000000000003D013902E6001201F60032018C
:00000001FF
