:100000000C945D000C9485000C9485000C94850084
:100010000C9485000C9485000C9485000C9485004C
:100020000C9485000C9485000C9485000C9485003C
:100030000C9485000C9485000C9485000C9485002C
:100040000C9487010C9485000C940E040C945104BC
:100050000C9485000C9485000C9485000C9485000C
:100060000C9485000C94850000000007000201003C
:100070000003040600000000000000000102040864
:100080001020408001020408102001020408102002
:10009000040404040404040402020202020203032E
:1000A0000303030300000000250028002B000000CC
:1000B0000000240027002A00100511241FBECFEFE6
:1000C000D8E0DEBFCDBF11E0A0E0B1E0EAE3FBE0A5
:1000D00002C005900D92A231B107D9F722E0A2E14A
:1000E000B1E001C01D92A339B207E1F710E0CDE500
:1000F000D0E004C02197FE010E949505CC35D107C0
:10010000C9F70E9467030C949B050C940000DC0166
:10011000ED91FC910190F081E02D099461E084E083
:100120000E94800261E085E00E94800261E086E03A
:100130000E94800261E087E00E94800260E081E02E
:100140000E94800260E080E00E94800240E855E268
:1001500060E070E089EE91E00C948C04DF92EF9205
:10016000FF920F931F93CF93DF93CDB7DEB7C85C99
:10017000D1090FB6F894DEBF0FBECDBFE8E1F1E0C4
:1001800080E3819391E0E03EF907D9F710921301E3
:1001900010921201109217011092160178E1E72EC9
:1001A00071E0F72E00E010E0DD24D39489EE91E0B9
:1001B0000E9474031816190634F589EE91E00E9426
:1001C0007403892B31F089EE91E00E94A0038093A3
:1001D0001201809112018B3391F0F70181937F011D
:1001E0000F5F1F4F1093170100931601D092130158
:1001F00061E070E080E090E00E94F601D7CF1093BC
:1002000017010093160110921501109214018091AC
:100210001301882309F43FC0FE013196CE018753B4
:100220009F4F8F0111921192E817F907D9F7E090CB
:100230001601F0901701A8E1B1E020E030E05AE0AB
:10024000CD01885191408E159F05D4F44D914E32C9
:1002500019F42F5F3F4FF4CFF901EE0FFF1FE00FAE
:10026000F11F60817181569FC001579F900D11242D
:10027000840F911D47FD9A95C09791838083E0CFAD
:1002800030931501209314016B817C8189810E9438
:100290000803109213016AE370E089EE91E00E9476
:1002A000870080E00E94EB0297FD0396BC017595E4
:1002B00067957595679589EE91E00E9487006EE2DB
:1002C00070E089EE91E00E94870081E00E94EB02DD
:1002D00097FD0396BC01759567957595679589EEB1
:1002E00091E00E9487006BE370E089EE91E0C853D3
:1002F000DF4F0FB6F894DEBF0FBECDBFDF91CF91B9
:100300001F910F91FF90EF90DF900C9487001F9248
:100310000F920FB60F9211242F933F938F939F93B9
:10032000AF93BF938091E1019091E201A091E3012D
:10033000B091E4013091E00123E0230F2D3720F448
:100340000196A11DB11D05C026E8230F0296A11D2F
:10035000B11D2093E0018093E1019093E201A0930D
:10036000E301B093E4018091E5019091E601A09151
:10037000E701B091E8010196A11DB11D8093E5014F
:100380009093E601A093E701B093E801BF91AF918C
:100390009F918F913F912F910F900FBE0F901F90C3
:1003A00018953FB7F8948091E5019091E601A091EE
:1003B000E701B091E80126B5A89B05C02F3F19F0D1
:1003C0000196A11DB11D3FBFBA2FA92F982F8827D5
:1003D000820F911DA11DB11DBC01CD0142E0660F30
:1003E000771F881F991F4A95D1F70895CF92DF9202
:1003F000EF92FF92CF93DF936B017C010E94D101BA
:10040000EB01C114D104E104F10479F00E94D1019F
:100410006C1B7D0B683E7340A0F381E0C81AD108C5
:10042000E108F108C851DC4FECCFDF91CF91FF908C
:10043000EF90DF90CF900895789484B5826084BD6A
:1004400084B5816084BD85B5826085BD85B58160D8
:1004500085BDEEE6F0E0808181608083E1E8F0E038
:100460001082808182608083808181608083E0E867
:10047000F0E0808181608083E1EBF0E08081846046
:100480008083E0EBF0E0808181608083EAE7F0E048
:1004900080818460808380818260808380818160AC
:1004A00080838081806880831092C10008958330AA
:1004B00081F028F4813099F08230A1F008958630DF
:1004C000A9F08730B9F08430D1F4809180008F7D1D
:1004D00003C0809180008F7780938000089584B559
:1004E0008F7702C084B58F7D84BD08958091B00060
:1004F0008F7703C08091B0008F7D8093B000089506
:10050000CF93DF9390E0FC01E458FF4F2491FC016E
:10051000E057FF4F8491882361F190E0880F991F85
:10052000FC01E255FF4FC591D491FC01EC55FF4F02
:10053000A591B491611109C09FB7F8948881209565
:1005400082238883EC912E230BC0623061F49FB725
:10055000F8948881322F309583238883EC912E2B59
:100560002C939FBF06C08FB7F894E8812E2B288369
:100570008FBFDF91CF9108951F93CF93DF93282FE3
:1005800030E0F901E859FF4F8491F901E458FF4F39
:10059000D491F901E057FF4FC491CC23C1F0162F3D
:1005A00081110E945702EC2FF0E0EE0FFF1FEC5577
:1005B000FF4FA591B4919FB7F894111104C08C918D
:1005C000D095D82302C0EC91DE2BDC939FBFDF9146
:1005D000CF911F9108958E3008F08E502091000128
:1005E00090E4299F900111248770822B80937C00D6
:1005F00080917A00806480937A0080917A0086FDF1
:10060000FCCF809178002091790090E0922B0895A2
:100610001F93CF93DF93182FEB0161E00E948002BC
:10062000209711F460E004C0CF3FD10539F461E0B8
:10063000812FDF91CF911F910C94BC02E12FF0E04C
:10064000E859FF4FE491E330F9F048F4E130B9F0B4
:10065000E230A1F584B5806284BDC8BD34C0E63007
:10066000E9F0E73019F1E43049F5809180008062CB
:1006700080938000D0938B00C0938A0024C084B5FF
:10068000806884BDC7BD1FC0809180008068809352
:100690008000D0938900C093880015C08091B0007D
:1006A00080688093B000C093B3000DC08091B0000B
:1006B00080628093B000C093B40005C0C038D105FB
:1006C0000CF0B5CFAFCFDF91CF911F9108950E946D
:1006D0001C020E948E00C8E4D4E00E94AE00209765
:1006E000E1F30E944804F9CFFC0124853585F90126
:1006F000E05CFF4F80819181329620813181821BA5
:10070000930B8F7399270895DC011C96ED91FC9152
:100710001D97DF01A05CBF4F2D913C911197129660
:100720008D919C9111972817390739F08D919C91E3
:10073000E80FF91F808190E008958FEF9FEF0895F3
:10074000FC01A485B585FD01E05CFF4F208131816E
:100750003296808191812817390779F080819181C3
:10076000A80FB91F8C91208131812F5F3F4F2F73CC
:1007700033273183208390E008958FEF9FEF089512
:10078000FC0181A1882329F0A489B5898C9186FF79
:10079000FBCF11A208950F931F93CF93DF93FC011A
:1007A000A685B7858D01005C1F4FE801888199817E
:1007B00001968F739927AD014E5B5F4FEA01288147
:1007C000398128173907D1F3E80128813981A20F2F
:1007D000B31F6C93A685B785A05CBF4F11969C9301
:1007E0008E93A689B7892C9181E090E0078C02C096
:1007F000880F991F0A94E2F7822B8C9381E081A3E2
:100800000488F589E02D80818064808381E090E018
:10081000DF91CF911F910F91089508951F920F922C
:100820000FB60F9211242F934F935F938F939F9343
:10083000EF93FF938091C00082FD1CC02091C60001
:1008400080918F029091900240919102509192027A
:1008500001968F7399274817590771F0E0918F021D
:10086000F0919002E15BFD4F208390939002809382
:100870008F0202C08091C600FF91EF919F918F91EE
:100880005F914F912F910F900FBE0F901F90189571
:1008900089EE91E00E947403892B11F00C940D04F1
:1008A00008951F920F920FB60F9211242F933F932A
:1008B0008F939F93EF93FF9320914B0230914C02C3
:1008C00080914D0290914E022817390731F48091A2
:1008D000C1008F7D8093C10014C0E0914D02F09162
:1008E0004E02E55FFD4F208180914D0290914E02B6
:1008F00001968F73992790934E0280934D02209317
:10090000C600FF91EF919F918F913F912F910F9092
:100910000FBE0F901F901895CF92DF92EF92FF922B
:10092000CF93DF93EC016A017B014115514E6105C4
:10093000710509F1EC89FD8981E090E008A002C011
:10094000880F991F0A94E2F7808360E079E08DE3D5
:1009500090E0A70196010E947305DA01C901019791
:10096000A109B109B695A795979587959C01211581
:1009700080E13807A8F0EC89FD89108260E874E80E
:100980008EE190E0A70196010E947305DA01C9018A
:100990000197A109B109B695A795979587959C01EF
:1009A000E889F9893083EA89FB89208319A2EE89D5
:1009B000FF89408181E090E09C010C8C02C0220FF5
:1009C000331F0A94E2F7242B2083EE89FF894081AC
:1009D0009C010D8C02C0220F331F0A94E2F7242BD6
:1009E0002083EE89FF8940819C010E8C02C0220F7A
:1009F000331F0A94E2F7242B2083EE89FF8920819C
:100A00000F8C02C0880F991F0A94E2F78095822309
:100A10008083DF91CF91FF90EF90DF90CF9008958A
:100A2000E9EEF1E01382128288EE93E0A0E0B0E0FC
:100A300084839583A683B78385E091E09183808347
:100A40008FE492E0958784878BE092E09787868792
:100A500085EC90E0918B808B84EC90E0938B828B83
:100A600080EC90E0958B848B81EC90E0978B868B6B
:100A700082EC90E0918F808F86EC90E0938F828F54
:100A800084E0848F83E0858F87E0868F85E0878F81
:100A900081E080A30895CF92DF92EF92FF920F93AF
:100AA0001F93CF93DF936C01EB017B01E40EF51EE6
:100AB00000E010E0CE15DF0561F06991D601ED91FF
:100AC000FC910190F081E02DC6010995080F191FD6
:100AD000F1CFC801DF91CF911F910F91FF90EF905F
:100AE000DF90CF900895A1E21A2EAA1BBB1BFD0137
:100AF0000DC0AA1FBB1FEE1FFF1FA217B307E407FD
:100B0000F50720F0A21BB30BE40BF50B661F771F54
:100B1000881F991F1A9469F7609570958095909534
:100B20009B01AC01BD01CF010895EE0FFF1F0590A1
:0A0B3000F491E02D0994F894FFCF32
:100B3A000100000000CB034B057403A0038403C02B
:020B4A000300A6
:00000001FF
