:100000000C945D000C9485000C9485000C94850084
:100010000C9485000C9485000C9485000C9485004C
:100020000C9485000C9485000C9485000C9485003C
:100030000C9485000C9485000C9485000C9485002C
:100040000C941C010C9485000C946B040C94AE046D
:100050000C9485000C9485000C9485000C9485000C
:100060000C9485000C94850000000007000201003C
:100070000003040600000000000000000102040864
:100080001020408001020408102001020408102002
:10009000040404040404040402020202020203032E
:1000A0000303030300000000250028002B000000CC
:1000B0000000240027002A006D0511241FBECFEF89
:1000C000D8E0DEBFCDBF11E0A0E0B1E0E2E9FCE0A6
:1000D00002C005900D92AC31B107D9F721E0ACE137
:1000E000B1E001C01D92AD3DB207E1F710E0CDE5F2
:1000F000D0E004C02197FE010E94FD05CC35D10758
:10010000C9F70E9408030C9447060C94000061157F
:10011000710579F0FB0101900020E9F73197AF01FB
:10012000461B570BDC01ED91FC910280F381E02D21
:10013000099480E090E0089561E084E00E9421024B
:1001400061E085E00E94210261E086E00E942102D8
:1001500061E087E00E94210260E081E00E942102CC
:1001600060E080E00E94210240E855E260E070E03B
:1001700083E391E00E94E90441E050E060E070E038
:1001800083E391E00C94610383E391E00E94D10347
:10019000892B81F083E391E00E94CE0370932701C5
:1001A0006093260183E391E00E94CE0370932901BE
:1001B00060932801609128017091290180912601A6
:1001C0000E94A90282E00E948C024AE06CE171E088
:1001D0000E94120661E071E083E391E00E948700D3
:1001E0006CE171E083E391E00E94870065E071E0DB
:1001F00083E391E00E94870083E00E948C024AE042
:100200006CE171E00E94120667E071E083E391E027
:100210000E9487006CE171E083E391E00E94870017
:1002200065E071E083E391E00E94870061E070E0A7
:1002300080E090E00C9497011F920F920FB60F92FE
:1002400011242F933F938F939F93AF93BF938091EC
:100250002B0190912C01A0912D01B0912E01309194
:100260002A0123E0230F2D3720F40196A11DB11D93
:1002700005C026E8230F0296A11DB11D20932A0177
:1002800080932B0190932C01A0932D01B0932E010C
:1002900080912F0190913001A0913101B0913201F4
:1002A0000196A11DB11D80932F0190933001A09361
:1002B0003101B0933201BF91AF919F918F913F91E6
:1002C0002F910F900FBE0F901F9018952FB7F89495
:1002D00060912B0170912C0180912D0190912E0144
:1002E0002FBF08953FB7F89480912F01909130016E
:1002F000A0913101B091320126B5A89B05C02F3FD6
:1003000019F00196A11DB11D3FBFBA2FA92F982F3B
:100310008827820F911DA11DB11DBC01CD0142E0B6
:10032000660F771F881F991F4A95D1F70895CF92BE
:10033000DF92EF92FF92CF93DF936B017C010E94DB
:100340007201EB01C114D104E104F10479F00E94BF
:1003500072016C1B7D0B683E7340A0F381E0C81AEC
:10036000D108E108F108C851DC4FECCFDF91CF9103
:10037000FF90EF90DF90CF900895789484B58260DD
:1003800084BD84B5816084BD85B5826085BD85B539
:10039000816085BDEEE6F0E0808181608083E1E8E8
:1003A000F0E0108280818260808380818160808320
:1003B000E0E8F0E0808181608083E1EBF0E0808123
:1003C00084608083E0EBF0E0808181608083EAE7F5
:1003D000F0E080818460808380818260808380817E
:1003E000816080838081806880831092C10008953D
:1003F000833081F028F4813099F08230A1F00895A3
:100400008630A9F08730B9F08430D1F48091800033
:100410008F7D03C0809180008F7780938000089546
:1004200084B58F7702C084B58F7D84BD0895809197
:10043000B0008F7703C08091B0008F7D8093B000B3
:100440000895CF93DF9390E0FC01E458FF4F24918F
:10045000FC01E057FF4F8491882361F190E0880F01
:10046000991FFC01E255FF4FC591D491FC01EC5559
:10047000FF4FA591B491611109C09FB7F89488818D
:10048000209582238883EC912E230BC0623061F487
:100490009FB7F8948881322F309583238883EC911D
:1004A0002E2B2C939FBF06C08FB7F894E8812E2B7C
:1004B00028838FBFDF91CF9108951F93CF93DF9350
:1004C000282F30E0F901E859FF4F8491F901E458F1
:1004D000FF4FD491F901E057FF4FC491CC23C1F0F5
:1004E000162F81110E94F801EC2FF0E0EE0FFF1F94
:1004F000EC55FF4FA591B4919FB7F894111104C02A
:100500008C91D095D82302C0EC91DE2BDC939FBF59
:10051000DF91CF911F9108958E3008F08E50209179
:10052000000190E4299F900111248770822B809311
:100530007C0080917A00806480937A0080917A00B8
:1005400086FDFCCF809178002091790090E0922B7D
:1005500008951F93CF93DF93182FEB0161E00E9462
:100560002102209711F460E004C0CF3FD10539F497
:1005700061E0812FDF91CF911F910C945D02E12FFB
:10058000F0E0E859FF4FE491E330F9F048F4E1304E
:10059000B9F0E230A1F584B5806284BDC8BD34C035
:1005A000E630E9F0E73019F1E43049F58091800058
:1005B000806280938000D0938B00C0938A0024C017
:1005C00084B5806884BDC7BD1FC0809180008068ED
:1005D00080938000D0938900C093880015C08091DB
:1005E000B00080688093B000C093B3000DC08091CC
:1005F000B00080628093B000C093B40005C0C038E2
:10060000D1050CF0B5CFAFCFDF91CF911F910895F9
:100610000E94BD010E949C00C5EAD4E00E94C40073
:100620002097E1F30E94A504F9CF0F931F93CF9376
:10063000DF93EC010E946601688779878A879B8730
:10064000E881F9810084F185E02DCE01099597FFBD
:1006500017C00E946601088519852A853B85DC0143
:10066000CB01801B910BA20BB30B0C811D812E8142
:100670003F8180179107A207B30710F38FEF9FEF19
:10068000DF91CF911F910F910895CF93DF93EC01EC
:10069000CE010E94150397FD11C08D32910571F0B6
:1006A0009C01205331092A30310540F0E881F9815D
:1006B0000680F781E02DCE010995EACFDF91CF9139
:1006C0000895FC0144835583668377830895BF9220
:1006D000CF92DF92EF92FF920F931F93CF93DF930E
:1006E0008C01C62F0E944503FC0197FD47C0C12C19
:1006F000D12C7601B12C0C2E000CDD0BEC17FD0774
:1007000009F1ED32F105E1F0CF01C0970A97D0F47D
:10071000AAE0B0E0A70196010E94F2056F01FF0F69
:10072000EE08FF08DC01CB018C0D9D1DAE1DBF1D29
:100730006C017D0120E3C21AD108E108F10802C072
:10074000BB24B394D801ED91FC910680F781E02D94
:10075000C8010995C8010E941503FC01C0970A97BA
:1007600068F2CE17DF0751F2BB2061F066277727CA
:10077000CB016C197D098E099F0906C060E070E00D
:10078000CB0102C0C701B601DF91CF911F910F913C
:10079000FF90EF90DF90CF90BF90089561E00C94B0
:1007A0006703FC0124853585F901E05CFF4F8081FA
:1007B0009181329620813181821B930B8F7399270F
:1007C0000895DC011C96ED91FC911D97DF01A05C62
:1007D000BF4F2D913C91119712968D919C9111973D
:1007E0002817390739F08D919C91E80FF91F808106
:1007F00090E008958FEF9FEF0895FC01A485B585E3
:10080000FD01E05CFF4F2081318132968081918132
:100810002817390779F080819181A80FB91F8C9131
:10082000208131812F5F3F4F2F7333273183208306
:1008300090E008958FEF9FEF0895FC0181A1882338
:1008400029F0A489B5898C9186FFFBCF11A2089568
:100850000F931F93CF93DF93FC01A685B7858D017E
:10086000005C1F4FE8018881998101968F73992759
:10087000AD014E5B5F4FEA012881398128173907A6
:10088000D1F3E80128813981A20FB31F6C93A685AB
:10089000B785A05CBF4F11969C938E93A689B789AC
:1008A0002C9181E090E0078C02C0880F991F0A9478
:1008B000E2F7822B8C9381E081A30488F589E02DF7
:1008C00080818064808381E090E0DF91CF911F91EF
:1008D0000F91089508951F920F920FB60F92112451
:1008E0002F934F935F938F939F93EF93FF938091F9
:1008F000C00082FD1CC02091C6008091D90190915A
:10090000DA014091DB015091DC0101968F73992748
:100910004817590771F0E091D901F091DA01E756D3
:10092000FE4F20839093DA018093D90102C0809119
:10093000C600FF91EF919F918F915F914F912F9101
:100940000F900FBE0F901F90189583E391E00E94C7
:10095000D103892B11F00C946A0408951F920F9211
:100960000FB60F9211242F933F938F939F93EF9382
:10097000FF9320919501309196018091970190917C
:1009800098012817390731F48091C1008F7D809339
:10099000C10014C0E0919701F0919801EB5AFE4F0D
:1009A0002081809197019091980101968F739927EA
:1009B00090939801809397012093C600FF91EF9147
:1009C0009F918F913F912F910F900FBE0F901F908D
:1009D0001895CF92DF92EF92FF92CF93DF93EC01C5
:1009E0006A017B014115514E6105710509F1EC89E0
:1009F000FD8981E090E008A002C0880F991F0A9449
:100A0000E2F7808360E079E08DE390E0A701960152
:100A10000E94D005DA01C9010197A109B109B69573
:100A2000A795979587959C01211580E13807A8F037
:100A3000EC89FD89108260E874E88EE190E0A701FE
:100A400096010E94D005DA01C9010197A109B109F7
:100A5000B695A795979587959C01E889F989308384
:100A6000EA89FB89208319A2EE89FF89408181E010
:100A700090E09C010C8C02C0220F331F0A94E2F715
:100A8000242B2083EE89FF8940819C010D8C02C0BC
:100A9000220F331F0A94E2F7242B2083EE89FF896B
:100AA00040819C010E8C02C0220F331F0A94E2F792
:100AB000242B2083EE89FF8920810F8C02C0880FB0
:100AC000991F0A94E2F7809582238083DF91CF916A
:100AD000FF90EF90DF90CF900895E3E3F1E0138271
:100AE000128288EE93E0A0E0B0E084839583A68331
:100AF000B7838FE091E09183808389E991E09587C6
:100B0000848785E591E09787868785EC90E0918BD7
:100B1000808B84EC90E0938B828B80EC90E0958BC3
:100B2000848B81EC90E0978B868B82EC90E0918FA8
:100B3000808F86EC90E0938F828F84E0848F83E0B7
:100B4000858F87E0868F85E0878F81E080A3089579
:100B5000CF92DF92EF92FF920F931F93CF93DF9389
:100B60006C01EB017B01E40EF51E00E010E0CE15F8
:100B7000DF0561F06991D601ED91FC910190F08162
:100B8000E02DC6010995080F191FF1CFC801DF91AB
:100B9000CF911F910F91FF90EF90DF90CF9008952C
:100BA000A1E21A2EAA1BBB1BFD010DC0AA1FBB1F71
:100BB000EE1FFF1FA217B307E407F50720F0A21BE3
:100BC000B30BE40BF50B661F771F881F991F1A9450
:100BD00069F760957095809590959B01AC01BD017A
:100BE000CF0108950E940306A59F900DB49F900D1C
:100BF000A49F800D911D11240895EE0FFF1F0590F5
:100C0000F491E02D0994A29FB001B39FC001A39F6E
:100C1000700D811D1124911DB29F700D811D112435
:100C2000911D0895BB274A3031F4992322F4BDE287
:100C3000909581959F4F0C941E06BB27FB0155276D
:100C4000AA27880F991FAA1FA41710F0A41B839529
:100C50005051B9F7A05DAA3308F0A95DA1930097A0
:100C600079F7B111B1931192CB010C943706DC01E5
:100C7000FC01672F71917723E1F7329704C07C91D3
:100C80006D9370836291AE17BF07C8F30895F8940F
:020C9000FFCF94
:100C9200013A3220000A003A332000000000002806
:0C0CA20004A805D103FD03E1031D0400BC
:00000001FF
